{
  "_format": "hh-sol-artifact-1",
  "contractName": "BlockPay",
  "sourceName": "contracts/BlockPay.sol",
  "abi": [
    {
      "inputs": [
        {
          "internalType": "uint256",
          "name": "index",
          "type": "uint256"
        }
      ],
      "name": "getTransaction",
      "outputs": [
        {
          "components": [
            {
              "internalType": "address",
              "name": "sender",
              "type": "address"
            },
            {
              "internalType": "address",
              "name": "receiver",
              "type": "address"
            },
            {
              "internalType": "uint256",
              "name": "amount",
              "type": "uint256"
            },
            {
              "internalType": "uint256",
              "name": "timestamp",
              "type": "uint256"
            }
          ],
          "internalType": "struct BlockPay.Transaction",
          "name": "",
          "type": "tuple"
        }
      ],
      "stateMutability": "view",
      "type": "function"
    },
    {
      "inputs": [],
      "name": "getTransactionCount",
      "outputs": [
        {
          "internalType": "uint256",
          "name": "",
          "type": "uint256"
        }
      ],
      "stateMutability": "view",
      "type": "function"
    },
    {
      "inputs": [
        {
          "internalType": "address",
          "name": "_receiver",
          "type": "address"
        }
      ],
      "name": "sendPayment",
      "outputs": [],
      "stateMutability": "payable",
      "type": "function"
    },
    {
      "inputs": [
        {
          "internalType": "uint256",
          "name": "",
          "type": "uint256"
        }
      ],
      "name": "transactions",
      "outputs": [
        {
          "internalType": "address",
          "name": "sender",
          "type": "address"
        },
        {
          "internalType": "address",
          "name": "receiver",
          "type": "address"
        },
        {
          "internalType": "uint256",
          "name": "amount",
          "type": "uint256"
        },
        {
          "internalType": "uint256",
          "name": "timestamp",
          "type": "uint256"
        }
      ],
      "stateMutability": "view",
      "type": "function"
    }
  ],
  "bytecode": "0x608060405234801561001057600080fd5b5061076e806100206000396000f3fe60806040526004361061003f5760003560e01c80632e7700f01461004457806333ea3dc81461006f5780638a7644a8146100ac5780639ace38c2146100c8575b600080fd5b34801561005057600080fd5b50610059610108565b60405161006691906104a6565b60405180910390f35b34801561007b57600080fd5b50610096600480360381019061009191906104f2565b610114565b6040516100a391906105c4565b60405180910390f35b6100c660048036038101906100c1919061060b565b610210565b005b3480156100d457600080fd5b506100ef60048036038101906100ea91906104f2565b6103b9565b6040516100ff9493929190610647565b60405180910390f35b60008080549050905090565b61011c610439565b600082815481106101305761012f61068c565b5b90600052602060002090600402016040518060800160405290816000820160009054906101000a900473ffffffffffffffffffffffffffffffffffffffff1673ffffffffffffffffffffffffffffffffffffffff1673ffffffffffffffffffffffffffffffffffffffff1681526020016001820160009054906101000a900473ffffffffffffffffffffffffffffffffffffffff1673ffffffffffffffffffffffffffffffffffffffff1673ffffffffffffffffffffffffffffffffffffffff168152602001600282015481526020016003820154815250509050919050565b60003411610253576040517f08c379a000000000000000000000000000000000000000000000000000000000815260040161024a90610718565b60405180910390fd5b600060405180608001604052803373ffffffffffffffffffffffffffffffffffffffff1681526020018373ffffffffffffffffffffffffffffffffffffffff16815260200134815260200142815250908060018154018082558091505060019003906000526020600020906004020160009091909190915060008201518160000160006101000a81548173ffffffffffffffffffffffffffffffffffffffff021916908373ffffffffffffffffffffffffffffffffffffffff16021790555060208201518160010160006101000a81548173ffffffffffffffffffffffffffffffffffffffff021916908373ffffffffffffffffffffffffffffffffffffffff160217905550604082015181600201556060820151816003015550508073ffffffffffffffffffffffffffffffffffffffff166108fc349081150290604051600060405180830381858888f193505050501580156103b5573d6000803e3d6000fd5b5050565b600081815481106103c957600080fd5b90600052602060002090600402016000915090508060000160009054906101000a900473ffffffffffffffffffffffffffffffffffffffff16908060010160009054906101000a900473ffffffffffffffffffffffffffffffffffffffff16908060020154908060030154905084565b6040518060800160405280600073ffffffffffffffffffffffffffffffffffffffff168152602001600073ffffffffffffffffffffffffffffffffffffffff16815260200160008152602001600081525090565b6000819050919050565b6104a08161048d565b82525050565b60006020820190506104bb6000830184610497565b92915050565b600080fd5b6104cf8161048d565b81146104da57600080fd5b50565b6000813590506104ec816104c6565b92915050565b600060208284031215610508576105076104c1565b5b6000610516848285016104dd565b91505092915050565b600073ffffffffffffffffffffffffffffffffffffffff82169050919050565b600061054a8261051f565b9050919050565b61055a8161053f565b82525050565b6105698161048d565b82525050565b6080820160008201516105856000850182610551565b5060208201516105986020850182610551565b5060408201516105ab6040850182610560565b5060608201516105be6060850182610560565b50505050565b60006080820190506105d9600083018461056f565b92915050565b6105e88161053f565b81146105f357600080fd5b50565b600081359050610605816105df565b92915050565b600060208284031215610621576106206104c1565b5b600061062f848285016105f6565b91505092915050565b6106418161053f565b82525050565b600060808201905061065c6000830187610638565b6106696020830186610638565b6106766040830185610497565b6106836060830184610497565b95945050505050565b7f4e487b7100000000000000000000000000000000000000000000000000000000600052603260045260246000fd5b600082825260208201905092915050565b7f416d6f756e74206d7573742062652067726561746572207468616e207a65726f600082015250565b60006107026020836106bb565b915061070d826106cc565b602082019050919050565b60006020820190508181036000830152610731816106f5565b905091905056fea264697066735822122033b2232d09469b0cdfe858dfb864fdbdb4ecb427c9eaa1187b712328d5fce65964736f6c63430008140033",
  "linkReferences": {},
  "deployedLinkReferences": {}
}