{
  "_format": "hh-sol-artifact-1",
  "contractName": "UserRegistry",
  "sourceName": "contracts/userRegistry.sol",
  "abi": [
    {
      "anonymous": false,
      "inputs": [
        {
          "indexed": true,
          "internalType": "address",
          "name": "user",
          "type": "address"
        },
        {
          "indexed": false,
          "internalType": "string",
          "name": "username",
          "type": "string"
        }
      ],
      "name": "UserRegistered",
      "type": "event"
    },
    {
      "inputs": [
        {
          "internalType": "address",
          "name": "_user",
          "type": "address"
        }
      ],
      "name": "getUsername",
      "outputs": [
        {
          "internalType": "string",
          "name": "",
          "type": "string"
        }
      ],
      "stateMutability": "view",
      "type": "function"
    },
    {
      "inputs": [
        {
          "internalType": "address",
          "name": "_user",
          "type": "address"
        }
      ],
      "name": "isRegistered",
      "outputs": [
        {
          "internalType": "bool",
          "name": "",
          "type": "bool"
        }
      ],
      "stateMutability": "view",
      "type": "function"
    },
    {
      "inputs": [
        {
          "internalType": "string",
          "name": "_username",
          "type": "string"
        }
      ],
      "name": "register",
      "outputs": [],
      "stateMutability": "nonpayable",
      "type": "function"
    },
    {
      "inputs": [
        {
          "internalType": "address",
          "name": "",
          "type": "address"
        }
      ],
      "name": "users",
      "outputs": [
        {
          "internalType": "address",
          "name": "userAddress",
          "type": "address"
        },
        {
          "internalType": "string",
          "name": "username",
          "type": "string"
        },
        {
          "internalType": "bool",
          "name": "registered",
          "type": "bool"
        }
      ],
      "stateMutability": "view",
      "type": "function"
    }
  ],
  "bytecode": "0x608060405234801561001057600080fd5b50610cb1806100206000396000f3fe608060405234801561001057600080fd5b506004361061004c5760003560e01c8063a87430ba14610051578063c3c5a54714610083578063ce43c032146100b3578063f2c298be146100e3575b600080fd5b61006b60048036038101906100669190610618565b6100ff565b60405161007a939291906106ff565b60405180910390f35b61009d60048036038101906100989190610618565b6101de565b6040516100aa919061073d565b60405180910390f35b6100cd60048036038101906100c89190610618565b610236565b6040516100da9190610758565b60405180910390f35b6100fd60048036038101906100f891906107df565b610397565b005b60006020528060005260406000206000915090508060000160009054906101000a900473ffffffffffffffffffffffffffffffffffffffff16908060010180546101489061085b565b80601f01602080910402602001604051908101604052809291908181526020018280546101749061085b565b80156101c15780601f10610196576101008083540402835291602001916101c1565b820191906000526020600020905b8154815290600101906020018083116101a457829003601f168201915b5050505050908060020160009054906101000a900460ff16905083565b60008060008373ffffffffffffffffffffffffffffffffffffffff1673ffffffffffffffffffffffffffffffffffffffff16815260200190815260200160002060020160009054906101000a900460ff169050919050565b60606000808373ffffffffffffffffffffffffffffffffffffffff1673ffffffffffffffffffffffffffffffffffffffff16815260200190815260200160002060020160009054906101000a900460ff166102c6576040517f08c379a00000000000000000000000000000000000000000000000000000000081526004016102bd906108d8565b60405180910390fd5b6000808373ffffffffffffffffffffffffffffffffffffffff1673ffffffffffffffffffffffffffffffffffffffff16815260200190815260200160002060010180546103129061085b565b80601f016020809104026020016040519081016040528092919081815260200182805461033e9061085b565b801561038b5780601f106103605761010080835404028352916020019161038b565b820191906000526020600020905b81548152906001019060200180831161036e57829003601f168201915b50505050509050919050565b6000803373ffffffffffffffffffffffffffffffffffffffff1673ffffffffffffffffffffffffffffffffffffffff16815260200190815260200160002060020160009054906101000a900460ff1615610426576040517f08c379a000000000000000000000000000000000000000000000000000000000815260040161041d90610944565b60405180910390fd5b60405180606001604052803373ffffffffffffffffffffffffffffffffffffffff16815260200183838080601f016020809104026020016040519081016040528093929190818152602001838380828437600081840152601f19601f820116905080830192505050505050508152602001600115158152506000803373ffffffffffffffffffffffffffffffffffffffff1673ffffffffffffffffffffffffffffffffffffffff16815260200190815260200160002060008201518160000160006101000a81548173ffffffffffffffffffffffffffffffffffffffff021916908373ffffffffffffffffffffffffffffffffffffffff16021790555060208201518160010190816105389190610b49565b5060408201518160020160006101000a81548160ff0219169083151502179055509050503373ffffffffffffffffffffffffffffffffffffffff167f48cac28ad4dc618e15f4c2dd5e97751182f166de97b25618318b2112aa951a2f83836040516105a4929190610c57565b60405180910390a25050565b600080fd5b600080fd5b600073ffffffffffffffffffffffffffffffffffffffff82169050919050565b60006105e5826105ba565b9050919050565b6105f5816105da565b811461060057600080fd5b50565b600081359050610612816105ec565b92915050565b60006020828403121561062e5761062d6105b0565b5b600061063c84828501610603565b91505092915050565b61064e816105da565b82525050565b600081519050919050565b600082825260208201905092915050565b60005b8381101561068e578082015181840152602081019050610673565b60008484015250505050565b6000601f19601f8301169050919050565b60006106b682610654565b6106c0818561065f565b93506106d0818560208601610670565b6106d98161069a565b840191505092915050565b60008115159050919050565b6106f9816106e4565b82525050565b60006060820190506107146000830186610645565b818103602083015261072681856106ab565b905061073560408301846106f0565b949350505050565b600060208201905061075260008301846106f0565b92915050565b6000602082019050818103600083015261077281846106ab565b905092915050565b600080fd5b600080fd5b600080fd5b60008083601f84011261079f5761079e61077a565b5b8235905067ffffffffffffffff8111156107bc576107bb61077f565b5b6020830191508360018202830111156107d8576107d7610784565b5b9250929050565b600080602083850312156107f6576107f56105b0565b5b600083013567ffffffffffffffff811115610814576108136105b5565b5b61082085828601610789565b92509250509250929050565b7f4e487b7100000000000000000000000000000000000000000000000000000000600052602260045260246000fd5b6000600282049050600182168061087357607f821691505b6020821081036108865761088561082c565b5b50919050565b7f4e6f742072656769737465726564000000000000000000000000000000000000600082015250565b60006108c2600e8361065f565b91506108cd8261088c565b602082019050919050565b600060208201905081810360008301526108f1816108b5565b9050919050565b7f416c726561647920726567697374657265640000000000000000000000000000600082015250565b600061092e60128361065f565b9150610939826108f8565b602082019050919050565b6000602082019050818103600083015261095d81610921565b9050919050565b7f4e487b7100000000000000000000000000000000000000000000000000000000600052604160045260246000fd5b60008190508160005260206000209050919050565b60006020601f8301049050919050565b600082821b905092915050565b6000600883026109f57fffffffffffffffffffffffffffffffffffffffffffffffffffffffffffffffff826109b8565b6109ff86836109b8565b95508019841693508086168417925050509392505050565b6000819050919050565b6000819050919050565b6000610a46610a41610a3c84610a17565b610a21565b610a17565b9050919050565b6000819050919050565b610a6083610a2b565b610a74610a6c82610a4d565b8484546109c5565b825550505050565b600090565b610a89610a7c565b610a94818484610a57565b505050565b5b81811015610ab857610aad600082610a81565b600181019050610a9a565b5050565b601f821115610afd57610ace81610993565b610ad7846109a8565b81016020851015610ae6578190505b610afa610af2856109a8565b830182610a99565b50505b505050565b600082821c905092915050565b6000610b2060001984600802610b02565b1980831691505092915050565b6000610b398383610b0f565b9150826002028217905092915050565b610b5282610654565b67ffffffffffffffff811115610b6b57610b6a610964565b5b610b75825461085b565b610b80828285610abc565b600060209050601f831160018114610bb35760008415610ba1578287015190505b610bab8582610b2d565b865550610c13565b601f198416610bc186610993565b60005b82811015610be957848901518255600182019150602085019450602081019050610bc4565b86831015610c065784890151610c02601f891682610b0f565b8355505b6001600288020188555050505b505050505050565b82818337600083830152505050565b6000610c36838561065f565b9350610c43838584610c1b565b610c4c8361069a565b840190509392505050565b60006020820190508181036000830152610c72818486610c2a565b9050939250505056fea26469706673582212204bfc3807e632fb73a326b1676a04163140b5b5fc486ff9b2a3637ebb67e3ff6864736f6c63430008140033",
  "linkReferences": {},
  "deployedLinkReferences": {}
}